{
  "contractName": "Todo",
  "abi": [
    {
      "constant": false,
      "inputs": [
        {
          "name": "item",
          "type": "string"
        }
      ],
      "name": "addItem",
      "outputs": [],
      "payable": false,
      "stateMutability": "nonpayable",
      "type": "function"
    },
    {
      "constant": false,
      "inputs": [
        {
          "name": "index",
          "type": "uint256"
        }
      ],
      "name": "deleteItem",
      "outputs": [
        {
          "name": "",
          "type": "string[]"
        }
      ],
      "payable": false,
      "stateMutability": "nonpayable",
      "type": "function"
    },
    {
      "constant": true,
      "inputs": [],
      "name": "getItems",
      "outputs": [
        {
          "name": "",
          "type": "string[]"
        }
      ],
      "payable": false,
      "stateMutability": "view",
      "type": "function"
    }
  ],
  "bytecode": "0x608060405234801561001057600080fd5b506108ad806100206000396000f3fe608060405234801561001057600080fd5b506004361061005e576000357c01000000000000000000000000000000000000000000000000000000009004806327e9f29414610063578063410d59cc1461007f578063654fc8331461009d575b600080fd5b61007d6004803603610078919081019061065d565b6100cd565b005b61008761010f565b604051610094919061076b565b60405180910390f35b6100b760048036036100b2919081019061069e565b6101f8565b6040516100c4919061076b565b60405180910390f35b600081908060018154018082558091505090600182039060005260206000200160009091929091909150908051906020019061010a92919061047f565b505050565b60606000805480602002602001604051908101604052809291908181526020016000905b828210156101ef578382906000526020600020018054600181600116156101000203166002900480601f0160208091040260200160405190810160405280929190818152602001828054600181600116156101000203166002900480156101db5780601f106101b0576101008083540402835291602001916101db565b820191906000526020600020905b8154815290600101906020018083116101be57829003601f168201915b505050505081526020019060010190610133565b50505050905090565b6060600080549050821015156102f1576000805480602002602001604051908101604052809291908181526020016000905b828210156102e6578382906000526020600020018054600181600116156101000203166002900480601f0160208091040260200160405190810160405280929190818152602001828054600181600116156101000203166002900480156102d25780601f106102a7576101008083540402835291602001916102d2565b820191906000526020600020905b8154815290600101906020018083116102b557829003601f168201915b50505050508152602001906001019061022a565b50505050905061047a565b60008290505b6001600080549050038110156103695760006001820181548110151561031957fe5b9060005260206000200160008281548110151561033257fe5b90600052602060002001908054600181600116156101000203166002900461035b9291906104ff565b5080806001019150506102f7565b506000805480151561037757fe5b6001900381819060005260206000200160006103939190610586565b90556000805480602002602001604051908101604052809291908181526020016000905b82821015610473578382906000526020600020018054600181600116156101000203166002900480601f01602080910402602001604051908101604052809291908181526020018280546001816001161561010002031660029004801561045f5780601f106104345761010080835404028352916020019161045f565b820191906000526020600020905b81548152906001019060200180831161044257829003601f168201915b5050505050815260200190600101906103b7565b5050505090505b919050565b828054600181600116156101000203166002900490600052602060002090601f016020900481019282601f106104c057805160ff19168380011785556104ee565b828001600101855582156104ee579182015b828111156104ed5782518255916020019190600101906104d2565b5b5090506104fb91906105ce565b5090565b828054600181600116156101000203166002900490600052602060002090601f016020900481019282601f106105385780548555610575565b8280016001018555821561057557600052602060002091601f016020900482015b82811115610574578254825591600101919060010190610559565b5b50905061058291906105ce565b5090565b50805460018160011615610100020316600290046000825580601f106105ac57506105cb565b601f0160209004906000526020600020908101906105ca91906105ce565b5b50565b6105f091905b808211156105ec5760008160009055506001016105d4565b5090565b90565b600082601f830112151561060657600080fd5b8135610619610614826107ba565b61078d565b9150808252602083016020830185838301111561063557600080fd5b610640838284610820565b50505092915050565b60006106558235610816565b905092915050565b60006020828403121561066f57600080fd5b600082013567ffffffffffffffff81111561068957600080fd5b610695848285016105f3565b91505092915050565b6000602082840312156106b057600080fd5b60006106be84828501610649565b91505092915050565b60006106d2826107f3565b808452602084019350836020820285016106eb856107e6565b60005b84811015610724578383038852610706838351610735565b925061071182610809565b91506020880197506001810190506106ee565b508196508694505050505092915050565b6000610740826107fe565b80845261075481602086016020860161082f565b61075d81610862565b602085010191505092915050565b6000602082019050818103600083015261078581846106c7565b905092915050565b6000604051905081810181811067ffffffffffffffff821117156107b057600080fd5b8060405250919050565b600067ffffffffffffffff8211156107d157600080fd5b601f19601f8301169050602081019050919050565b6000602082019050919050565b600081519050919050565b600081519050919050565b6000602082019050919050565b6000819050919050565b82818337600083830152505050565b60005b8381101561084d578082015181840152602081019050610832565b8381111561085c576000848401525b50505050565b6000601f19601f830116905091905056fea265627a7a72305820781f35e8f848df8dc385ba6ea70c806064a6a8e2ac8efde4f46cc173fde44b146c6578706572696d656e74616cf50037",
  "source": "// SPDX-License-Identifier: MIT\r\npragma solidity >=0.4.22 <0.9.0;\r\npragma experimental ABIEncoderV2;\r\n\r\ncontract  Todo{\r\n\r\nstring[]  items;\r\n\r\nfunction addItem(string memory item) public { items.push(item); }\r\nfunction deleteItem(uint index)public returns(string[] memory){ \r\n\r\n        if (index >= items.length) return items;\r\n\r\n        for (uint i = index; i<items.length-1; i++){\r\n            items[i] = items[i+1];\r\n        }\r\n        items.pop();\r\n        return items;\r\n    \r\n }\r\nfunction getItems()public view returns(string[] memory){ return items;}\r\n\r\n\r\n\r\n}",
  "sourcePath": "F:\\Dapps\\todo\\truffle\\contracts\\Todo.sol",
  "compiler": {
    "name": "solc",
    "version": "0.5.2+commit.1df8f40c.Emscripten.clang"
  },
  "schemaVersion": "3.4.5",
  "updatedAt": "2022-03-07T13:43:54.845Z",
  "networkType": "ethereum",
  "devdoc": {
    "methods": {}
  },
  "userdoc": {
    "methods": {}
  }
}