{
  "contractName": "Transactions",
  "abi": [
    {
      "constant": true,
      "inputs": [],
      "name": "numTransactions",
      "outputs": [
        {
          "name": "",
          "type": "uint256"
        }
      ],
      "payable": false,
      "stateMutability": "view",
      "type": "function"
    },
    {
      "constant": true,
      "inputs": [
        {
          "name": "",
          "type": "uint256"
        }
      ],
      "name": "transactions",
      "outputs": [
        {
          "name": "txHash",
          "type": "string"
        },
        {
          "name": "txType",
          "type": "string"
        },
        {
          "name": "accountAdress",
          "type": "string"
        }
      ],
      "payable": false,
      "stateMutability": "view",
      "type": "function"
    },
    {
      "constant": false,
      "inputs": [
        {
          "name": "_txHash",
          "type": "string"
        },
        {
          "name": "_txtype",
          "type": "string"
        },
        {
          "name": "_account",
          "type": "string"
        }
      ],
      "name": "addTransaction",
      "outputs": [],
      "payable": false,
      "stateMutability": "nonpayable",
      "type": "function"
    },
    {
      "constant": false,
      "inputs": [],
      "name": "getTransactionsCount",
      "outputs": [
        {
          "name": "",
          "type": "uint256"
        }
      ],
      "payable": false,
      "stateMutability": "nonpayable",
      "type": "function"
    },
    {
      "constant": false,
      "inputs": [
        {
          "name": "index",
          "type": "uint256"
        }
      ],
      "name": "getTransactions",
      "outputs": [
        {
          "name": "",
          "type": "string[]"
        },
        {
          "name": "",
          "type": "string[]"
        },
        {
          "name": "",
          "type": "string[]"
        }
      ],
      "payable": true,
      "stateMutability": "payable",
      "type": "function"
    }
  ],
  "bytecode": "0x608060405234801561001057600080fd5b50610b29806100206000396000f3fe608060405260043610610067576000357c0100000000000000000000000000000000000000000000000000000000900480635742177c1461006c578063578cb8f91461009e57806390b4cc72146100c95780639ace38c2146100f4578063f61921df14610133575b600080fd5b61008660048036036100819190810190610870565b61015c565b6040516100959392919061094c565b60405180910390f35b3480156100aa57600080fd5b506100b3610405565b6040516100c091906109e4565b60405180910390f35b3480156100d557600080fd5b506100de61040f565b6040516100eb91906109e4565b60405180910390f35b34801561010057600080fd5b5061011b60048036036101169190810190610870565b610415565b60405161012a93929190610998565b60405180910390f35b34801561013f57600080fd5b5061015a600480360361015591908101906107d9565b610607565b005b60608060608060608060008090505b6001548110156103f15761017d6106a8565b6000808a815260200190815260200160002060606040519081016040529081600082018054600181600116156101000203166002900480601f0160208091040260200160405190810160405280929190818152602001828054600181600116156101000203166002900480156102345780601f1061020957610100808354040283529160200191610234565b820191906000526020600020905b81548152906001019060200180831161021757829003601f168201915b50505050508152602001600182018054600181600116156101000203166002900480601f0160208091040260200160405190810160405280929190818152602001828054600181600116156101000203166002900480156102d65780601f106102ab576101008083540402835291602001916102d6565b820191906000526020600020905b8154815290600101906020018083116102b957829003601f168201915b50505050508152602001600282018054600181600116156101000203166002900480601f0160208091040260200160405190810160405280929190818152602001828054600181600116156101000203166002900480156103785780601f1061034d57610100808354040283529160200191610378565b820191906000526020600020905b81548152906001019060200180831161035b57829003601f168201915b50505050508152505090508060000151858381518110151561039657fe5b90602001906020020181905250806020015184838151811015156103b657fe5b90602001906020020181905250806040015183838151811015156103d657fe5b9060200190602002018190525050808060010191505061016b565b508282829550955095505050509193909250565b6000600154905090565b60015481565b6000602052806000526040600020600091509050806000018054600181600116156101000203166002900480601f0160208091040260200160405190810160405280929190818152602001828054600181600116156101000203166002900480156104c15780601f10610496576101008083540402835291602001916104c1565b820191906000526020600020905b8154815290600101906020018083116104a457829003601f168201915b505050505090806001018054600181600116156101000203166002900480601f01602080910402602001604051908101604052809291908181526020018280546001816001161561010002031660029004801561055f5780601f106105345761010080835404028352916020019161055f565b820191906000526020600020905b81548152906001019060200180831161054257829003601f168201915b505050505090806002018054600181600116156101000203166002900480601f0160208091040260200160405190810160405280929190818152602001828054600181600116156101000203166002900480156105fd5780601f106105d2576101008083540402835291602001916105fd565b820191906000526020600020905b8154815290600101906020018083116105e057829003601f168201915b5050505050905083565b60606040519081016040528084815260200183815260200182815250600080600154815260200190815260200160002060008201518160000190805190602001906106539291906106ca565b5060208201518160010190805190602001906106709291906106ca565b50604082015181600201908051906020019061068d9291906106ca565b50905050600160008154809291906001019190505550505050565b6060604051908101604052806060815260200160608152602001606081525090565b828054600181600116156101000203166002900490600052602060002090601f016020900481019282601f1061070b57805160ff1916838001178555610739565b82800160010185558215610739579182015b8281111561073857825182559160200191906001019061071d565b5b509050610746919061074a565b5090565b61076c91905b80821115610768576000816000905550600101610750565b5090565b90565b600082601f830112151561078257600080fd5b813561079561079082610a2c565b6109ff565b915080825260208301602083018583830111156107b157600080fd5b6107bc838284610a9c565b50505092915050565b60006107d18235610a92565b905092915050565b6000806000606084860312156107ee57600080fd5b600084013567ffffffffffffffff81111561080857600080fd5b6108148682870161076f565b935050602084013567ffffffffffffffff81111561083157600080fd5b61083d8682870161076f565b925050604084013567ffffffffffffffff81111561085a57600080fd5b6108668682870161076f565b9150509250925092565b60006020828403121561088257600080fd5b6000610890848285016107c5565b91505092915050565b60006108a482610a65565b808452602084019350836020820285016108bd85610a58565b60005b848110156108f65783830388526108d8838351610907565b92506108e382610a7b565b91506020880197506001810190506108c0565b508196508694505050505092915050565b600061091282610a70565b808452610926816020860160208601610aab565b61092f81610ade565b602085010191505092915050565b61094681610a88565b82525050565b600060608201905081810360008301526109668186610899565b9050818103602083015261097a8185610899565b9050818103604083015261098e8184610899565b9050949350505050565b600060608201905081810360008301526109b28186610907565b905081810360208301526109c68185610907565b905081810360408301526109da8184610907565b9050949350505050565b60006020820190506109f9600083018461093d565b92915050565b6000604051905081810181811067ffffffffffffffff82111715610a2257600080fd5b8060405250919050565b600067ffffffffffffffff821115610a4357600080fd5b601f19601f8301169050602081019050919050565b6000602082019050919050565b600081519050919050565b600081519050919050565b6000602082019050919050565b6000819050919050565b6000819050919050565b82818337600083830152505050565b60005b83811015610ac9578082015181840152602081019050610aae565b83811115610ad8576000848401525b50505050565b6000601f19601f830116905091905056fea265627a7a7230582030957b5c38a0a8d0f99316c1660d3c397c784c0e41157a99aee19fea3857eb4d6c6578706572696d656e74616cf50037",
  "source": "// SPDX-License-Identifier: MIT\r\npragma solidity >=0.4.22 <0.9.0;\r\npragma experimental ABIEncoderV2;\r\n\r\ncontract Transactions{\r\n    mapping(uint => transaction)public  transactions;\r\n    uint public numTransactions;\r\n\r\n    struct transaction{\r\n        string txHash;\r\n        string txType; // add or delete\r\n        string accountAdress;\r\n\r\n    }\r\n    function addTransaction(string memory _txHash,string memory _txtype,string memory _account) public {\r\n        \r\n        transactions[numTransactions]=transaction(_txHash,_txtype,_account);\r\n        numTransactions++;\r\n\r\n    }\r\n    function getTransactionsCount() public returns(uint){ return numTransactions;}\r\n    function getTransactions(uint index) \r\n    payable \r\n    public\r\n     returns(\r\n         string[] memory,\r\n         string[] memory,\r\n         string[] memory\r\n          )\r\n         { \r\nstring[] memory Hashes;\r\nstring[] memory Types;\r\nstring[] memory Accounts;\r\n\r\nfor(uint i=0;i<numTransactions;i++) {\r\n    transaction memory obj =transactions[index];\r\n    Hashes[i]=obj.txHash;\r\n    Types[i]=obj.txType;\r\n    Accounts[i]= obj.accountAdress;\r\n\r\n}\r\nreturn (Hashes,Types,Accounts);\r\n\r\n\r\n    }\r\n}",
  "sourcePath": "F:\\Dapps\\todo\\truffle\\contracts\\Transactions.sol",
  "compiler": {
    "name": "solc",
    "version": "0.5.2+commit.1df8f40c.Emscripten.clang"
  },
  "schemaVersion": "3.4.5",
  "updatedAt": "2022-02-27T16:52:54.549Z",
  "devdoc": {
    "methods": {}
  },
  "userdoc": {
    "methods": {}
  }
}